{
  "contractName": "Lottery",
  "abi": [
    {
      "inputs": [],
      "stateMutability": "nonpayable",
      "type": "constructor"
    },
    {
      "inputs": [],
      "name": "owner",
      "outputs": [
        {
          "internalType": "address",
          "name": "",
          "type": "address"
        }
      ],
      "stateMutability": "view",
      "type": "function",
      "constant": true
    },
    {
      "inputs": [
        {
          "internalType": "uint256",
          "name": "",
          "type": "uint256"
        }
      ],
      "name": "participants",
      "outputs": [
        {
          "internalType": "address payable",
          "name": "",
          "type": "address"
        }
      ],
      "stateMutability": "view",
      "type": "function",
      "constant": true
    },
    {
      "inputs": [
        {
          "internalType": "address",
          "name": "",
          "type": "address"
        }
      ],
      "name": "registeredContestants",
      "outputs": [
        {
          "internalType": "bool",
          "name": "",
          "type": "bool"
        }
      ],
      "stateMutability": "view",
      "type": "function",
      "constant": true
    },
    {
      "inputs": [],
      "name": "getLotteryTicket",
      "outputs": [],
      "stateMutability": "payable",
      "type": "function",
      "payable": true
    },
    {
      "inputs": [],
      "name": "getContractBalance",
      "outputs": [
        {
          "internalType": "uint256",
          "name": "",
          "type": "uint256"
        }
      ],
      "stateMutability": "view",
      "type": "function",
      "constant": true
    },
    {
      "inputs": [],
      "name": "getParticpants",
      "outputs": [
        {
          "internalType": "address payable[]",
          "name": "",
          "type": "address[]"
        }
      ],
      "stateMutability": "view",
      "type": "function",
      "constant": true
    },
    {
      "inputs": [],
      "name": "chooseWinner",
      "outputs": [
        {
          "internalType": "address payable",
          "name": "",
          "type": "address"
        }
      ],
      "stateMutability": "nonpayable",
      "type": "function"
    }
  ],
  "bytecode": "0x6080604052600160025534801561001557600080fd5b50336000806101000a81548173ffffffffffffffffffffffffffffffffffffffff021916908373ffffffffffffffffffffffffffffffffffffffff160217905550610e49806100656000396000f3fe6080604052600436106100705760003560e01c80638da5cb5b1161004e5780638da5cb5b146100e7578063a841e0dc14610112578063cd38aa871461013d578063ea45d1981461016857610070565b8063156ea2e51461007557806335c1d3491461007f5780636f9fb98a146100bc575b600080fd5b61007d6101a5565b005b34801561008b57600080fd5b506100a660048036038101906100a19190610777565b61036a565b6040516100b391906107e5565b60405180910390f35b3480156100c857600080fd5b506100d16103a9565b6040516100de919061080f565b60405180910390f35b3480156100f357600080fd5b506100fc6103b1565b604051610109919061084b565b60405180910390f35b34801561011e57600080fd5b506101276103d5565b6040516101349190610924565b60405180910390f35b34801561014957600080fd5b50610152610463565b60405161015f91906107e5565b60405180910390f35b34801561017457600080fd5b5061018f600480360381019061018a9190610972565b6106de565b60405161019c91906109ba565b60405180910390f35b670de0b6b3a76400003410156101f0576040517f08c379a00000000000000000000000000000000000000000000000000000000081526004016101e790610a32565b60405180910390fd5b670de0b6b3a764000034111561025b573373ffffffffffffffffffffffffffffffffffffffff166108fc670de0b6b3a76400003461022e9190610a81565b9081150290604051600060405180830381858888f19350505050158015610259573d6000803e3d6000fd5b505b600360003373ffffffffffffffffffffffffffffffffffffffff1673ffffffffffffffffffffffffffffffffffffffff16815260200190815260200160002060009054906101000a900460ff16610368576001339080600181540180825580915050600190039060005260206000200160009091909190916101000a81548173ffffffffffffffffffffffffffffffffffffffff021916908373ffffffffffffffffffffffffffffffffffffffff1602179055506001600360003373ffffffffffffffffffffffffffffffffffffffff1673ffffffffffffffffffffffffffffffffffffffff16815260200190815260200160002060006101000a81548160ff0219169083151502179055505b565b6001818154811061037a57600080fd5b906000526020600020016000915054906101000a900473ffffffffffffffffffffffffffffffffffffffff1681565b600047905090565b60008054906101000a900473ffffffffffffffffffffffffffffffffffffffff1681565b6060600180548060200260200160405190810160405280929190818152602001828054801561045957602002820191906000526020600020905b8160009054906101000a900473ffffffffffffffffffffffffffffffffffffffff1673ffffffffffffffffffffffffffffffffffffffff168152602001906001019080831161040f575b5050505050905090565b60008060009054906101000a900473ffffffffffffffffffffffffffffffffffffffff1673ffffffffffffffffffffffffffffffffffffffff163373ffffffffffffffffffffffffffffffffffffffff16146104f4576040517f08c379a00000000000000000000000000000000000000000000000000000000081526004016104eb90610b01565b60405180910390fd5b6003600180549050101561053d576040517f08c379a000000000000000000000000000000000000000000000000000000000815260040161053490610b93565b60405180910390fd5b60006001805490504442600160025460405160200161055f9493929190610cf2565b6040516020818303038152906040528051906020012060001c6105829190610d6b565b905060006001828154811061059a57610599610d9c565b5b9060005260206000200160009054906101000a900473ffffffffffffffffffffffffffffffffffffffff1690508073ffffffffffffffffffffffffffffffffffffffff166108fc479081150290604051600060405180830381858888f1935050505015801561060d573d6000803e3d6000fd5b5060005b6001805490508110156106c7576000600360006001848154811061063857610637610d9c565b5b9060005260206000200160009054906101000a900473ffffffffffffffffffffffffffffffffffffffff1673ffffffffffffffffffffffffffffffffffffffff1673ffffffffffffffffffffffffffffffffffffffff16815260200190815260200160002060006101000a81548160ff02191690831515021790555080806106bf90610dcb565b915050610611565b50600160006106d691906106fe565b809250505090565b60036020528060005260406000206000915054906101000a900460ff1681565b508054600082559060005260206000209081019061071c919061071f565b50565b5b80821115610738576000816000905550600101610720565b5090565b600080fd5b6000819050919050565b61075481610741565b811461075f57600080fd5b50565b6000813590506107718161074b565b92915050565b60006020828403121561078d5761078c61073c565b5b600061079b84828501610762565b91505092915050565b600073ffffffffffffffffffffffffffffffffffffffff82169050919050565b60006107cf826107a4565b9050919050565b6107df816107c4565b82525050565b60006020820190506107fa60008301846107d6565b92915050565b61080981610741565b82525050565b60006020820190506108246000830184610800565b92915050565b6000610835826107a4565b9050919050565b6108458161082a565b82525050565b6000602082019050610860600083018461083c565b92915050565b600081519050919050565b600082825260208201905092915050565b6000819050602082019050919050565b61089b816107c4565b82525050565b60006108ad8383610892565b60208301905092915050565b6000602082019050919050565b60006108d182610866565b6108db8185610871565b93506108e683610882565b8060005b838110156109175781516108fe88826108a1565b9750610909836108b9565b9250506001810190506108ea565b5085935050505092915050565b6000602082019050818103600083015261093e81846108c6565b905092915050565b61094f8161082a565b811461095a57600080fd5b50565b60008135905061096c81610946565b92915050565b6000602082840312156109885761098761073c565b5b60006109968482850161095d565b91505092915050565b60008115159050919050565b6109b48161099f565b82525050565b60006020820190506109cf60008301846109ab565b92915050565b600082825260208201905092915050565b7f506c656173652070617920312065746865720000000000000000000000000000600082015250565b6000610a1c6012836109d5565b9150610a27826109e6565b602082019050919050565b60006020820190508181036000830152610a4b81610a0f565b9050919050565b7f4e487b7100000000000000000000000000000000000000000000000000000000600052601160045260246000fd5b6000610a8c82610741565b9150610a9783610741565b9250828203905081811115610aaf57610aae610a52565b5b92915050565b7f596f7520617265206e6f742074686520636f6e7472616374206f776e65720000600082015250565b6000610aeb601e836109d5565b9150610af682610ab5565b602082019050919050565b60006020820190508181036000830152610b1a81610ade565b9050919050565b7f4e6f7420656e6f756768207061727469636970616e747320746f206465636c6160008201527f726520726573756c740000000000000000000000000000000000000000000000602082015250565b6000610b7d6029836109d5565b9150610b8882610b21565b604082019050919050565b60006020820190508181036000830152610bac81610b70565b9050919050565b6000819050919050565b610bce610bc982610741565b610bb3565b82525050565b600081549050919050565b600081905092915050565b60008190508160005260206000209050919050565b610c08816107c4565b82525050565b6000610c1a8383610bff565b60208301905092915050565b60008160001c9050919050565b600073ffffffffffffffffffffffffffffffffffffffff82169050919050565b6000610c66610c6183610c26565b610c33565b9050919050565b6000610c798254610c53565b9050919050565b6000600182019050919050565b6000610c9882610bd4565b610ca28185610bdf565b9350610cad83610bea565b8060005b83811015610ce557610cc282610c6d565b610ccc8882610c0e565b9750610cd783610c80565b925050600181019050610cb1565b5085935050505092915050565b6000610cfe8287610bbd565b602082019150610d0e8286610bbd565b602082019150610d1e8285610c8d565b9150610d2a8284610bbd565b60208201915081905095945050505050565b7f4e487b7100000000000000000000000000000000000000000000000000000000600052601260045260246000fd5b6000610d7682610741565b9150610d8183610741565b925082610d9157610d90610d3c565b5b828206905092915050565b7f4e487b7100000000000000000000000000000000000000000000000000000000600052603260045260246000fd5b6000610dd682610741565b91507fffffffffffffffffffffffffffffffffffffffffffffffffffffffffffffffff8203610e0857610e07610a52565b5b60018201905091905056fea264697066735822122004773102386ede74310bb1f031b2b71885fde120348735752835c5a57c4efb5464736f6c63430008130033",
  "immutableReferences": {},
  "source": "//SPDX-License-Identifier: MIT\r\n\r\npragma solidity 0.8.19;\r\n\r\ncontract Lottery{\r\n    address public owner;\r\n    address payable[] public participants ;\r\n    uint counter = 1;\r\n    constructor(){\r\n        owner = msg.sender;\r\n    }\r\n\r\n    mapping(address=>bool) public registeredContestants;\r\n\r\n    function getLotteryTicket() public payable{\r\n        require(msg.value >= 1 ether, \"Please pay 1 ether\");\r\n        if(msg.value > 1 ether){\r\n            payable(msg.sender).transfer(msg.value - 1 ether);\r\n        }\r\n        if(!registeredContestants[msg.sender]){\r\n        participants.push(payable(msg.sender));\r\n        registeredContestants[msg.sender] = true;\r\n        }\r\n    }\r\n\r\n    function getContractBalance() public view returns(uint){\r\n        return address(this).balance;\r\n    }\r\n\r\n    function getParticpants() public view returns(address payable[] memory){\r\n        return participants;\r\n    }\r\n\r\n    function chooseWinner() public returns(address payable){\r\n        require(msg.sender == owner, \"You are not the contract owner\");\r\n        require(participants.length >=3, \"Not enough participants to declare result\");\r\n        uint winnerNum = uint(keccak256(abi.encodePacked(block.prevrandao, block.timestamp, participants,counter))) % participants.length;\r\n        address payable winner = participants[winnerNum];\r\n        winner.transfer(address(this).balance);\r\n\r\n        // clear mapping.\r\n        for(uint i=0; i<participants.length; i++){\r\n            registeredContestants[participants[i]] = false;\r\n        }\r\n        //clear array. \r\n        delete participants;\r\n        return winner;\r\n    }\r\n}",
  "sourcePath": "C:\\Users\\amito\\OneDrive\\Desktop\\Decentralized Applications\\Dapp Project-2 (Lottery Project)\\contracts\\Lottery.sol",
  "compiler": {
    "name": "solc",
    "version": "0.8.19+commit.7dd6d404.Emscripten.clang"
  },
  "schemaVersion": "3.4.13",
  "updatedAt": "2023-03-24T10:17:34.759Z",
  "networkType": "ethereum",
  "devdoc": {
    "kind": "dev",
    "methods": {},
    "version": 1
  },
  "userdoc": {
    "kind": "user",
    "methods": {},
    "version": 1
  }
}